:060000000A128A11ED2A2C
:10053C0083120313BE000C1EA42AA52AA12A3E086E
:10054C0099000800831203138C1EAD2AAE2AA82A28
:10055C001A08BE003E0808007E088A007F08820048
:10056C00B2220A128A118000840A04087D0603193B
:10057C000034FF0A0319FE0AB62A413454342B34D2
:10058C0043344D34473452343D34313400344134E7
:10059C0054342B3443344D34473444343D343134A7
:1005AC00003401300A128A1186230A128A11003093
:1005BC0083120313C1000030C0000230BF0058305A
:1005CC00BE000A128A11D0230A128A110800831362
:1005DC00203084003E300A128A1181250A128A11B9
:1005EC006C30FD000230FE00C330FF005830840038
:1005FC000A128A11B6220A128A1183010A128A116E
:10060C00892D83120313C3001030430203180F2BE0
:10061C00102B182B4308803E0A128A1186230A12CB
:10062C008A11222B4308EC3EC3004308C03E0A1239
:10063C008A1186230A128A11080083120313BF0041
:10064C000A128A11A8220A128A1183120313C000FB
:10065C004008F0003F0884007008831380000130CC
:10066C00F0007008BF0740080A3A031D3E2B3F2BD1
:10067C00262B080083120313BF00552B3F080A12C8
:10068C008A1109240A128A110A128A119E220A124C
:10069C008A110130F000700883120313BF073F0862
:1006AC000A128A1109240A128A110038031D5F2BC1
:1006BC00602B442B080083120313C300762B4308D2
:1006CC000A128A1109240A128A110A128A11AB23FE
:1006DC000A128A110130F400740883120313C30741
:1006EC004308031D7A2B852B43080A128A1109240F
:1006FC000A128A110038031D842B852B652B0800E8
:10070C0083120313C20006124208880086160030BA
:10071C00C1000030C0000030BF003230BE000A12F1
:10072C008A11D0230A128A11831203138612003005
:10073C00C1000030C0000030BF003230BE000A12D1
:10074C008A11D0230A128A11080083120313C200E3
:10075C0006164208880086160030C1000030C00022
:10076C000030BF000A30BE000A128A11D0230A12D0
:10077C008A118312031386120030C1000030C000AE
:10078C000030BF000A30BE000A128A11D0230A12B0
:10079C008A11080083120313410840043F043E04ED
:1007AC00031DD92BDA2BDB2BFF2B0130F000003093
:1007BC00F1000030F2000030F3007008BE02710846
:1007CC00031C710FEA2BEB2BBF027208031C720F78
:1007DC00F02BF12BC0027308031C730FF62BF72BB5
:1007EC00C102410840043F043E04031DFE2BFF2BB5
:1007FC00DB2B0800FE00FE1F082C83137E188317CA
:10080C00000808000408FE0004308A007E088207F5
:10081C0000345734613472346E3469346E34673456
:10082C003A34203453347734693474346334683450
:10083C0020343134203468346134733420346234DD
:10084C00653465346E3420347434723469346734EE
:10085C0067346534723465346434203421340034A4
:10086C00413454342B3443344D34473453343D34B5
:10087C002234303431343234333434343534363445
:10088C0037343834393422340034533465346E34CC
:10089C00643469346E346734203453344D345334F7
:1008AC002E342E342E340034543465347334743472
:1008BC0069346E346734203443346F346D342E34E1
:1008CC002E342E340034523465346134643469343B
:1008DC006E346734203453344D3453342E342E3428
:1008EC002E34003443347934743472346F346E34AF
:1008FC00203454346534633468342E3400342B344F
:10090C0043344D34543449343A342034223453343F
:10091C004D3422342C3400345334653474347434F0
:10092C0069346E3467342034543465347834743418
:10093C000034573461346934743469346E34673438
:10094C00203466346F347234003453346D34613473
:10095C0072347434203448346F346D34653400345C
:10096C00433461346C346C34203452346534613427
:10097C00643479340034413454342B3443344D349E
:10098C00473446343D343134003445347234723497
:10099C006F3472342E342E342E3400345234653489
:1009AC006134643479342E342E342E3400344D3486
:1009BC006F34643465342E342E342E3400342B349E
:1009CC0043344D34473453343A3400346F34663442
:1009DC00663400344F344B3400340D340A34003454
:1009EC006F346E34003441345434003483120313A6
:1009FC00BE002D2D3F0884003E080A128A110924DE
:100A0C000A128A118313000603190D2D0E2D252DA4
:100A1C003F0884000008F000F101F009F109F00A28
:100A2C000319F10A3E080A128A1109240A128A11C2
:100A3C007007BF0071080318710AC000412D013006
:100A4C00F0007008BE070130F0007008BF070130DD
:100A5C00C0020030031CC103C102FF304106031D5C
:100A6C00392DFF304006031D3C2D3D2D002D00304F
:100A7C00BF000030C00008005D2D41088400420812
:100A8C000A128A1100240A128A110A128A119E2251
:100A9C000A128A11013083120313C1070318C20A08
:100AAC000030C2070A128A11A8220A128A11831274
:100ABC0003134108840042080A128A1100240A1206
:100ACC008A110038031D6B2D6C2D432DE5300A1255
:100ADC008A1140230A128A110A128A11A8220A12B8
:100AEC008A1183120313C00040080A3A031D7F2D9C
:100AFC00802D722D080064008001840A04060319FD
:100B0C0000340406822D4E3084005830F500040861
:100B1C00F6000A30F7007508840083130008F8000B
:100B2C00F50A7608840078088000F60AF70B912DF8
:100B3C00443084006230F5000408F6000A30F700F7
:100B4C007508840083130008F800F50A7608840001
:100B5C0078088000F60AF70BA62D033083160313D2
:100B6C008600031000300318013088000730850020
:100B7C0083120313061386130A308316031399008A
:100B8C0018159816181383120313181318169817A0
:100B9C000630831603139F0001300A128A11862334
:100BAC000A128A1102300A128A1186230A128A1139
:100BBC0006300A128A1186230A128A110C300A1284
:100BCC008A1186230A128A1138300A128A11862356
:100BDC000A128A110A128A11D7220A128A116A3051
:100BEC000A128A1161230A128A1114300A128A110C
:100BFC0007230A128A119D300A128A1161230A12E4
:100C0C008A11003083120313C1000130C0008630FA
:100C1C00BF00A030BE000A128A11D0230A128A111A
:100C2C000A128A11D7220A128A114C300A128A111E
:100C3C0061230A128A11EB3083120313C1000030B6
:100C4C00C2000A128A1142250A128A1120300A1295
:100C5C008A1123230A128A11203083120313BF0036
:100C6C000230C0000030C100E2300A128A11FC24AC
:100C7C000A128A1183138312031340083F040319C9
:100C8C00482E492E552E0A128A11D7220A128A1181
:100C9C00BD300A128A1161230A128A11542E0A12CB
:100CAC008A11D7220A128A1191300A128A116123F1
:100CBC000A128A1114300A128A1107230A128A1195
:100CCC00A8300A128A1161230A128A1120300A12E2
:100CDC008A1123230A128A1120300A128A11232323
:100CEC000A128A11203083120313BF000A30C0008D
:100CFC000030C100A8300A128A11FC240A128A1191
:100D0C0083138312031340083F0403198E2E8F2E76
:100D1C009B2E0A128A11D7220A128A11BD300A128E
:100D2C008A1161230A128A119A2E0A128A11D72269
:100D3C000A128A1184300A128A1161230A128A114A
:100D4C0014300A128A1107230A128A11CF300A12A0
:100D5C008A1161230A128A11B33083120313C10062
:100D6C000030C2000A128A1142250A128A11203060
:100D7C000A128A1123230A128A110A128A11D72203
:100D8C000A128A11AD300A128A1161230A128A11D1
:100D9C00831203138C1ED32ED42E722F20300A12E2
:100DAC008A1123230A128A11203083120313BF00E5
:100DBC000C30C0000030C10077300A128A11FC24BC
:100DCC000A128A1183138312031340083F04031D74
:100DDC00F02EF12E722F2C08F5007508D6002C0879
:100DEC00F5007508CC000A128A11D7220A128A1152
:100DFC005B300A128A1161230A128A114E30831257
:100E0C000313C1008030C2000A128A1142250A1253
:100E1C008A1120300A128A1123230A128A113430C3
:100E2C000A128A1123230A128A1120300A128A11FB
:100E3C0023230A128A1120300A128A1123230A1240
:100E4C008A11343083120313BF000230C00000300B
:100E5C00C100E8300A128A11FC240A128A11831389
:100E6C008312031340083F04031D3D2F3E2F412FD7
:100E7C0006178617582F3430BF000330C0000030DF
:100E8C00C100DE300A128A11FC240A128A11831363
:100E9C008312031340083F04031D552F562F582F60
:100EAC00061386134430C1008030C2000A128A1126
:100EBC0042250A128A1120300A128A1123230A129F
:100ECC008A110A128A11D7220A128A11C6300A1202
:100EDC008A1161230A128A11831203130618772FC1
:100EEC00782FCE2E0A128A11D7220A128A113D307F
:100EFC000A128A1161230A128A11283083120313F1
:100F0C00C1000030C2000A128A1142250A128A114D
:100F1C000A128A11A8220A128A113E3A0319972F33
:100F2C00982FA42F0A128A11D7220A128A11BD30C7
:100F3C000A128A1161230A128A11A32F01300A1294
:100F4C008A1140230A128A111A300A128A119E221F
:100F5C000A128A1120300A128A1123230A128A11CA
:100F6C0020300A128A1123230A128A11203083128C
:100F7C000313BF000630C0000030C100D7300A1286
:100F8C008A11FC240A128A1183138312031340085A
:100F9C003F040319D22FD32FDF2F0A128A11D72225
:100FAC000A128A11BD300A128A1161230A128A119F
:100FBC00DE2F20300A128A1123230A128A112030C4
:100FCC000A128A1123230A128A110A128A11D722B1
:100FDC000A128A11C6300A128A1161230A128A1166
:100FEC0083120313061CFB2FFC2FF62FCE2E0A1296
:040FFC008A1100282E
:02400E00323F3F
:00000001FF
